:100000000EC05AC01CC01BC01AC019C018C017C0EF
:1000100016C015C014C013C05EC011C010C011249A
:100020001FBECFE5D2E0DEBFCDBF20E0A0E6B0E04E
:1000300001C01D92A336B207E1F766D0F3C0E0CF4E
:1000400087B3886187BB88B3886188BB87B38360C7
:1000500087BB88B38C7F88BB0895BA98C29A85B74E
:10006000826085BF85B78E7F85BF8BB780648BBF6D
:100070000895BD98C59A84B7877F84BF81B588618C
:1000800081BD86E481BD089520E031E0019708F448
:100090000895F9013197F1F7F9CFC398C09A80E339
:1000A00092E0F2DFC39AC098C19AC49888EC90E0BD
:1000B000EBDFC198C49A08951F920F920FB60F926A
:1000C00011248F9381E0809362008F910F900FBE77
:1000D0000F901F9018951F920F920FB60F92112438
:1000E0008F939F93B59909C08091600090916100B2
:1000F000019690936100809360009F918F910F9083
:100100000FBE0F901F901895F8949ADFA6DFB1DF0D
:10011000789485B7806285BF889585B78F7D85BFC8
:1001200080916200882319F0B8DF10926200B599BF
:100130000FC0609160007091610090E080E00DD090
:1001400027E936E94CE555E445D087FDE2CFA5DF48
:100150001092610010926000DCCFE89409C097FB18
:100160003EF490958095709561957F4F8F4F9F4F8E
:100170009923A9F0F92F96E9BB279395F6958795D2
:1001800077956795B795F111F8CFFAF4BB0F11F495
:1001900060FF1BC06F5F7F4F8F4F9F4F16C088233C
:1001A00011F096E911C0772321F09EE8872F762F72
:1001B00005C0662371F096E8862F70E060E02AF0B3
:1001C0009A95660F771F881FDAF7880F969587959F
:1001D00097F9089503D008F48FEF0895990F000858
:1001E000550FAA0BE0E8FEEF16161706E807F90709
:1001F000C0F012161306E407F50798F0621B730BA4
:10020000840B950B39F40A2661F0232B242B252B24
:1002100021F408950A2609F4A140A6958FEF811DC7
:08022000811D0895F894FFCF41
:00000001FF
